{
  "_format": "hh-sol-artifact-1",
  "contractName": "AirdropList",
  "sourceName": "contracts/airdrop.sol",
  "abi": [
    {
      "inputs": [
        {
          "internalType": "address",
          "name": "_tokenContract",
          "type": "address"
        }
      ],
      "stateMutability": "nonpayable",
      "type": "constructor"
    },
    {
      "anonymous": false,
      "inputs": [
        {
          "indexed": true,
          "internalType": "address",
          "name": "previousOwner",
          "type": "address"
        },
        {
          "indexed": true,
          "internalType": "address",
          "name": "newOwner",
          "type": "address"
        }
      ],
      "name": "OwnershipTransferred",
      "type": "event"
    },
    {
      "inputs": [
        {
          "internalType": "address[]",
          "name": "_addresses",
          "type": "address[]"
        }
      ],
      "name": "addMultipleUsers",
      "outputs": [],
      "stateMutability": "nonpayable",
      "type": "function"
    },
    {
      "inputs": [
        {
          "internalType": "address",
          "name": "_addressToWhitelist",
          "type": "address"
        }
      ],
      "name": "addUser",
      "outputs": [],
      "stateMutability": "nonpayable",
      "type": "function"
    },
    {
      "inputs": [],
      "name": "count",
      "outputs": [
        {
          "internalType": "uint256",
          "name": "",
          "type": "uint256"
        }
      ],
      "stateMutability": "view",
      "type": "function"
    },
    {
      "inputs": [],
      "name": "end",
      "outputs": [],
      "stateMutability": "nonpayable",
      "type": "function"
    },
    {
      "inputs": [],
      "name": "getBalance",
      "outputs": [
        {
          "internalType": "uint256",
          "name": "",
          "type": "uint256"
        }
      ],
      "stateMutability": "view",
      "type": "function"
    },
    {
      "inputs": [],
      "name": "owner",
      "outputs": [
        {
          "internalType": "address",
          "name": "",
          "type": "address"
        }
      ],
      "stateMutability": "view",
      "type": "function"
    },
    {
      "inputs": [
        {
          "internalType": "uint256",
          "name": "amount",
          "type": "uint256"
        }
      ],
      "name": "receiveTokens",
      "outputs": [],
      "stateMutability": "nonpayable",
      "type": "function"
    },
    {
      "inputs": [],
      "name": "renounceOwnership",
      "outputs": [],
      "stateMutability": "nonpayable",
      "type": "function"
    },
    {
      "inputs": [],
      "name": "sendAirdrop",
      "outputs": [],
      "stateMutability": "nonpayable",
      "type": "function"
    },
    {
      "inputs": [
        {
          "internalType": "address",
          "name": "recipient",
          "type": "address"
        },
        {
          "internalType": "uint256",
          "name": "amount",
          "type": "uint256"
        }
      ],
      "name": "sendTokens",
      "outputs": [],
      "stateMutability": "nonpayable",
      "type": "function"
    },
    {
      "inputs": [],
      "name": "token",
      "outputs": [
        {
          "internalType": "contract IERC20",
          "name": "",
          "type": "address"
        }
      ],
      "stateMutability": "view",
      "type": "function"
    },
    {
      "inputs": [
        {
          "internalType": "address",
          "name": "newOwner",
          "type": "address"
        }
      ],
      "name": "transferOwnership",
      "outputs": [],
      "stateMutability": "nonpayable",
      "type": "function"
    },
    {
      "inputs": [],
      "name": "withdraw",
      "outputs": [],
      "stateMutability": "nonpayable",
      "type": "function"
    }
  ],
  "bytecode": "0x608060405234801561001057600080fd5b50604051610f70380380610f7083398101604081905261002f916100b7565b61003833610067565b600180546001600160a01b0319166001600160a01b03929092169190911790556003805460ff191690556100e7565b600080546001600160a01b038381166001600160a01b0319831681178455604051919092169283917f8be0079c531659141344cd1fd0a4f28419497f9722a3daafe3b4186f6b6457e09190a35050565b6000602082840312156100c957600080fd5b81516001600160a01b03811681146100e057600080fd5b9392505050565b610e7a806100f66000396000f3fe608060405234801561001057600080fd5b50600436106100cf5760003560e01c8063743e0c9b1161008c578063d3be202011610066578063d3be20201461016b578063efbe1c1c1461017e578063f2fde38b14610186578063fc0c546a1461019957600080fd5b8063743e0c9b1461012b5780638da5cb5b1461013e578063b337a9261461016357600080fd5b806305ab421d146100d457806306661abd146100e957806312065fe0146101005780633ccfd60b14610108578063421b2d8b14610110578063715018a614610123575b600080fd5b6100e76100e2366004610b03565b6101ac565b005b6002545b6040519081526020015b60405180910390f35b6100ed610230565b6100e76102a2565b6100e761011e366004610b2d565b610356565b6100e76103b0565b6100e7610139366004610b4f565b6103c4565b6000546001600160a01b03165b6040516001600160a01b0390911681526020016100f7565b6100e76104c6565b6100e7610179366004610b7e565b6108de565b6100e7610953565b6100e7610194366004610b2d565b6109c7565b60015461014b906001600160a01b031681565b6101b4610a3d565b60015460405163a9059cbb60e01b81526001600160a01b038481166004830152602482018490529091169063a9059cbb906044016020604051808303816000875af1158015610207573d6000803e3d6000fd5b505050506040513d601f19601f8201168201806040525081019061022b9190610c43565b505050565b6001546040516370a0823160e01b81523060048201526000916001600160a01b0316906370a0823190602401602060405180830381865afa158015610279573d6000803e3d6000fd5b505050506040513d601f19601f8201168201806040525081019061029d9190610c65565b905090565b6102aa610a3d565b60035460ff1661030d5760405162461bcd60e51b815260206004820152602360248201527f4c2761697264726f7020646f6974206574726520656e766f796520642761626f60448201526239321760e91b60648201526084015b60405180910390fd5b600080546001600160a01b03166040519091506001600160a01b038216904780156108fc02916000818181858888f19350505050158015610352573d6000803e3d6000fd5b5050565b61035e610a3d565b600280546001810182556000919091527f405787fa12a823e0f2b7631cc41b3ba8828b3321ca811111fa75cd3aa3bb5ace0180546001600160a01b0319166001600160a01b0392909216919091179055565b6103b8610a3d565b6103c26000610a97565b565b6001546040516323b872dd60e01b8152336004820152306024820152604481018390526001600160a01b03909116906323b872dd906064016020604051808303816000875af115801561041b573d6000803e3d6000fd5b505050506040513d601f19601f8201168201806040525081019061043f9190610c43565b6104c35760405162461bcd60e51b815260206004820152604960248201527f4c6520766972656d656e74206465206a65746f6e732061206563686f75652e2060448201527f4173737572657a2d766f757320642761766f6972206175746f72697365206c61606482015268103232b832b739b29760b91b608482015260a401610304565b50565b60035460ff16156104fe5760405162461bcd60e51b81526020600482015260026024820152614e6f60f01b6044820152606401610304565b6003805460ff19166001179055636553f10042116105785760405162461bcd60e51b815260206004820152603160248201527f496c2065737420656e636f72652074726f7020746f7420706f757220646973746044820152703934b13ab2b9103613b0b4b9323937b81760791b6064820152608401610304565b6000610582610230565b116105cf5760405162461bcd60e51b815260206004820152601e60248201527f4c6520736f6c646520647520636f6e747261742076617574207a65726f2e00006044820152606401610304565b6001546040805163313ce56760e01b815290516000926001600160a01b03169163313ce5679160048083019260209291908290030181865afa158015610619573d6000803e3d6000fd5b505050506040513d601f19601f8201168201806040525081019061063d9190610c7e565b9050600061064c600183610cb7565b61065790600a610dba565b9050600081610664610230565b61066e9190610dc9565b90506000805b60025481101561073857600154600280546001600160a01b03909216916370a082319190849081106106a8576106a8610deb565b60009182526020909120015460405160e083901b6001600160e01b03191681526001600160a01b039091166004820152602401602060405180830381865afa1580156106f8573d6000803e3d6000fd5b505050506040513d601f19601f8201168201806040525081019061071c9190610c65565b6107269083610e01565b915061073181610e14565b9050610674565b5060005b6002548110156108d75760008284600160009054906101000a90046001600160a01b03166001600160a01b03166370a082316002868154811061078157610781610deb565b60009182526020909120015460405160e083901b6001600160e01b03191681526001600160a01b039091166004820152602401602060405180830381865afa1580156107d1573d6000803e3d6000fd5b505050506040513d601f19601f820116820180604052508101906107f59190610c65565b6107ff9190610e2d565b6108099190610dc9565b600154600280549293506001600160a01b039091169163a9059cbb91908590811061083657610836610deb565b6000918252602090912001546001600160a01b03166108558885610e2d565b6040516001600160e01b031960e085901b1681526001600160a01b03909216600483015260248201526044016020604051808303816000875af11580156108a0573d6000803e3d6000fd5b505050506040513d601f19601f820116820180604052508101906108c49190610c43565b5050806108d090610e14565b905061073c565b5050505050565b6108e6610a3d565b60005b815181101561035257600282828151811061090657610906610deb565b60209081029190910181015182546001810184556000938452919092200180546001600160a01b0319166001600160a01b039092169190911790558061094b81610e14565b9150506108e9565b61095b610a3d565b60035460ff166109b95760405162461bcd60e51b8152602060048201526024808201527f4c2761697264726f70206e27612070617320656e636f72652065746520656e7660448201526337bcb29760e11b6064820152608401610304565b6000546001600160a01b0316ff5b6109cf610a3d565b6001600160a01b038116610a345760405162461bcd60e51b815260206004820152602660248201527f4f776e61626c653a206e6577206f776e657220697320746865207a65726f206160448201526564647265737360d01b6064820152608401610304565b6104c381610a97565b6000546001600160a01b031633146103c25760405162461bcd60e51b815260206004820181905260248201527f4f776e61626c653a2063616c6c6572206973206e6f7420746865206f776e65726044820152606401610304565b600080546001600160a01b038381166001600160a01b0319831681178455604051919092169283917f8be0079c531659141344cd1fd0a4f28419497f9722a3daafe3b4186f6b6457e09190a35050565b80356001600160a01b0381168114610afe57600080fd5b919050565b60008060408385031215610b1657600080fd5b610b1f83610ae7565b946020939093013593505050565b600060208284031215610b3f57600080fd5b610b4882610ae7565b9392505050565b600060208284031215610b6157600080fd5b5035919050565b634e487b7160e01b600052604160045260246000fd5b60006020808385031215610b9157600080fd5b823567ffffffffffffffff80821115610ba957600080fd5b818501915085601f830112610bbd57600080fd5b813581811115610bcf57610bcf610b68565b8060051b604051601f19603f83011681018181108582111715610bf457610bf4610b68565b604052918252848201925083810185019188831115610c1257600080fd5b938501935b82851015610c3757610c2885610ae7565b84529385019392850192610c17565b98975050505050505050565b600060208284031215610c5557600080fd5b81518015158114610b4857600080fd5b600060208284031215610c7757600080fd5b5051919050565b600060208284031215610c9057600080fd5b815160ff81168114610b4857600080fd5b634e487b7160e01b600052601160045260246000fd5b60ff8281168282160390811115610cd057610cd0610ca1565b92915050565b600181815b80851115610d11578160001904821115610cf757610cf7610ca1565b80851615610d0457918102915b93841c9390800290610cdb565b509250929050565b600082610d2857506001610cd0565b81610d3557506000610cd0565b8160018114610d4b5760028114610d5557610d71565b6001915050610cd0565b60ff841115610d6657610d66610ca1565b50506001821b610cd0565b5060208310610133831016604e8410600b8410161715610d94575081810a610cd0565b610d9e8383610cd6565b8060001904821115610db257610db2610ca1565b029392505050565b6000610b4860ff841683610d19565b600082610de657634e487b7160e01b600052601260045260246000fd5b500490565b634e487b7160e01b600052603260045260246000fd5b80820180821115610cd057610cd0610ca1565b600060018201610e2657610e26610ca1565b5060010190565b8082028115828204841417610cd057610cd0610ca156fea26469706673582212209523f36983717370e44f0dce6cfcb10fd62b68d1c7daa9a51782d2bf3d72449d64736f6c63430008130033",
  "linkReferences": {},
  "deployedLinkReferences": {}
}